:0100000004FB
:0100010004FA
:0100020004F9
:0100030004F8
:0100040004F7
:0100050004F6
:0100060004F5
:0100070004F4
:0100080004F3
:0100090004F2
:01000A0004F1
:01000B0004F0
:01000C0004EF
:01000D0004EE
:01000E0004ED
:01000F0004EC
:0100100004EB
:0100110004EA
:0100120004E9
:0100130004E8
:0100140004E7
:0100150004E6
:0100160004E5
:0100170004E4
:0100180004E3
:0100190004E2
:01001A0004E1
:01001B0004E0
:01001C0000E3
:01001D0000E2
:01001E0000E1
:01001F0000E0
:0100200000DF
:0100210000DE
:0100220000DD
:0100230000DC
:0100240000DB
:0100250000DA
:0100260000D9
:0100270000D8
:0100280000D7
:0100290000D6
:01002A0000D5
:01002B0000D4
:01002C0000D3
:01002D0000D2
:01002E0000D1
:01002F0000D0
:0100300000CF
:0100310000CE
:0100320000CD
:0100330000CC
:0100340000CB
:0100350000CA
:0100360000C9
:0100370000C8
:0100380000C7
:0100390000C6
:01003A0000C5
:01003B0000C4
:01003C0000C3
:01003D0000C2
:01003E0000C1
:01003F0000C0
:0100400000BF
:0100410000BE
:0100420000BD
:0100430000BC
:0100440000BB
:0100450000BA
:0100460000B9
:0100470000B8
:0100480000B7
:0100490000B6
:01004A0000B5
:01004B0000B4
:01004C0000B3
:01004D0000B2
:01004E0000B1
:01004F0000B0
:0100500000AF
:0100510000AE
:0100520000AD
:0100530000AC
:0100540000AB
:0100550000AA
:0100560000A9
:0100570000A8
:0100580000A7
:0100590000A6
:01005A0000A5
:01005B0000A4
:01005C0000A3
:01005D0000A2
:01005E0000A1
:01005F0000A0
:01006000009F
:01006100009E
:01006200009D
:01006300009C
:01006400009B
:01006500009A
:010066000099
:010067000098
:010068000097
:010069000096
:01006A000095
:01006B000094
:01006C000093
:01006D000092
:01006E000091
:01006F000090
:01007000008F
:01007100008E
:01007200008D
:01007300008C
:01007400008B
:01007500008A
:010076000089
:010077000088
:010078000087
:01007900077F
:01007A00077E
:01007B00077D
:01007C00077C
:01007D00077B
:01007E00077A
:01007F000779
:010080000778
:010081000777
:010082000776
:010083000775
:010084000774
:010085000773
:010086000772
:010087000771
:010088000770
:01008900076F
:01008A00076E
:01008B00076D
:01008C00076C
:01008D00076B
:01008E00076A
:01008F000769
:010090000768
:010091000767
:010092000766
:010093000765
:010094000764
:010095000763
:010096000762
:010097000761
:010098000760
:01009900075F
:01009A00075E
:01009B00075D
:01009C00075C
:01009D00075B
:01009E00075A
:01009F000759
:0100A0000758
:0100A1000757
:0100A2000756
:0100A3000755
:0100A4000754
:0100A5000753
:0100A6000752
:0100A7000751
:0100A8000750
:0100A900074F
:0100AA00074E
:0100AB00074D
:0100AC00074C
:0100AD00074B
:0100AE00074A
:0100AF000749
:0100B0000748
:0100B1000747
:0100B2000746
:0100B3000745
:0100B4000744
:0100B5000743
:0100B6000742
:0100B7000741
:0100B8000740
:0100B900073F
:0100BA00073E
:0100BB00073D
:0100BC00073C
:0100BD00073B
:0100BE00073A
:0100BF000739
:0100C0000738
:0100C1000737
:0100C2000736
:0100C3000735
:0100C4000734
:0100C5000733
:0100C6000732
:0100C7000731
:0100C8000730
:0100C900072F
:0100CA00072E
:0100CB00072D
:0100CC00072C
:0100CD00072B
:0100CE00072A
:0100CF000729
:0100D0000728
:0100D1000727
:0100D2000726
:0100D3000725
:0100D4000724
:0100D5000723
:0100D6000722
:0100D7000721
:0100D8000720
:0100D900071F
:0100DA00071E
:0100DB00071D
:0100DC00071C
:0100DD00071B
:0100DE00071A
:0100DF000719
:0100E0000718
:0100E1000717
:0100E2000716
:0100E3000715
:0100E4000714
:0100E5000713
:0100E6000712
:0100E7000711
:0100E8000710
:0100E900070F
:0100EA00070E
:0100EB00070D
:0100EC00070C
:0100ED00070B
:0100EE00070A
:0100EF000709
:0100F0000708
:0100F1000707
:0100F2000706
:0100F3000705
:0100F4000704
:0100F5000703
:0100F6000702
:0100F7000701
:0100F8000700
:0100F90007FF
:0100FA0007FE
:0100FB0007FD
:0100FC0007FC
:0100FD0007FB
:0100FE0007FA
:0100FF0007F9
:0101000007F7
:0101010007F6
:0101020007F5
:0101030007F4
:0101040007F3
:0101050007F2
:0101060007F1
:0101070007F0
:0101080007EF
:0101090007EE
:01010A0007ED
:01010B0007EC
:01010C0007EB
:01010D0007EA
:01010E0007E9
:01010F0007E8
:0101100007E7
:0101110007E6
:0101120007E5
:0101130007E4
:0101140007E3
:0101150007E2
:0101160007E1
:0101170007E0
:0101180007DF
:0101190007DE
:01011A0007DD
:01011B0007DC
:01011C0007DB
:01011D0007DA
:01011E0007D9
:01011F0007D8
:0101200007D7
:0101210007D6
:0101220007D5
:0101230007D4
:0101240007D3
:0101250007D2
:0101260007D1
:0101270007D0
:0101280007CF
:0101290007CE
:01012A0007CD
:01012B0007CC
:01012C0007CB
:01012D0007CA
:01012E0007C9
:01012F0007C8
:0101300007C7
:0101310007C6
:0101320007C5
:0101330007C4
:0101340007C3
:0101350007C2
:0101360007C1
:0101370007C0
:0101380007BF
:0101390007BE
:01013A0007BD
:01013B0007BC
:01013C0007BB
:01013D0007BA
:01013E0007B9
:01013F0007B8
:0101400007B7
:0101410007B6
:0101420007B5
:0101430007B4
:0101440007B3
:0101450007B2
:0101460007B1
:0101470007B0
:0101480007AF
:0101490007AE
:01014A0007AD
:01014B0007AC
:01014C0007AB
:01014D0007AA
:01014E0007A9
:01014F0007A8
:0101500007A7
:0101510007A6
:0101520007A5
:0101530007A4
:0101540007A3
:0101550007A2
:0101560007A1
:0101570007A0
:01015800079F
:01015900079E
:01015A00079D
:01015B00079C
:01015C00079B
:01015D00079A
:01015E000799
:01015F000798
:010160000797
:010161000796
:010162000795
:010163000794
:010164000793
:010165000792
:010166000791
:010167000790
:01016800078F
:01016900078E
:01016A00078D
:01016B00078C
:01016C00078B
:01016D00078A
:01016E000789
:01016F000788
:010170000787
:010171000786
:010172000785
:010173000784
:010174000783
:010175000782
:010176000781
:010177000780
:01017800077F
:01017900077E
:01017A00077D
:01017B00077C
:01017C00077B
:01017D00077A
:01017E000779
:01017F000778
:010180000777
:010181000776
:010182000775
:010183000774
:010184000773
:010185000772
:010186000771
:010187000770
:01018800076F
:01018900076E
:01018A00076D
:01018B00076C
:01018C00076B
:01018D00076A
:01018E000769
:01018F000768
:010190000767
:010191000766
:010192000765
:010193000764
:010194000763
:010195000762
:010196000761
:010197000760
:01019800075F
:01019900075E
:01019A00075D
:01019B00075C
:01019C00075B
:01019D00075A
:01019E000759
:01019F000758
:0101A0000757
:0101A1000756
:0101A2000755
:0101A3000754
:0101A4000753
:0101A5000752
:0101A6000751
:0101A7000750
:0101A800074F
:0101A900074E
:0101AA00074D
:0101AB00074C
:0101AC00074B
:0101AD00054C
:0101AE000050
:0101AF00004F
:0101B000004E
:0101B100004D
:0101B200004C
:0101B300004B
:0101B400004A
:0101B5000049
:0101B6000048
:0101B7000047
:0101B8000046
:0101B9000045
:0101BA000044
:0101BB000043
:0101BC000042
:0101BD000041
:0101BE000040
:0101BF00003F
:0101C000003E
:0101C100003D
:0101C200003C
:0101C300003B
:0101C400003A
:0101C5000039
:0101C6000038
:0101C7000037
:0101C8000036
:0101C9000035
:0101CA000034
:0101CB000033
:0101CC000032
:0101CD000031
:0101CE000030
:0101CF00002F
:0101D000002E
:0101D100002D
:0101D200002C
:0101D300002B
:0101D400002A
:0101D5000029
:0101D6000028
:0101D7000027
:0101D8000026
:0101D9000025
:0101DA000024
:0101DB000023
:0101DC000022
:0101DD000021
:0101DE000020
:0101DF00001F
:0101E000001E
:0101E100001D
:0101E200001C
:0101E300001B
:0101E400001A
:0101E5000019
:0101E6000018
:0101E7000017
:0101E8000016
:0101E9000015
:0101EA000014
:0101EB000013
:0101EC000012
:0101ED000011
:0101EE000010
:0101EF00000F
:0101F000000E
:0101F100000D
:0101F200000C
:0101F300000B
:0101F400000A
:0101F5000009
:0101F6000008
:0101F7000007
:0101F8000006
:0101F9000005
:0101FA000004
:0101FB000003
:0101FC000002
:0101FD000001
:0101FE000000
:0101FF0000FF
:0102000000FD
:0102010000FC
:0102020000FB
:0102030000FA
:0102040000F9
:0102050000F8
:0102060000F7
:0102070000F6
:0102080000F5
:0102090000F4
:01020A0000F3
:01020B0000F2
:01020C0000F1
:01020D0000F0
:01020E0000EF
:01020F0000EE
:0102100000ED
:0102110000EC
:0102120000EB
:0102130000EA
:0102140000E9
:0102150000E8
:0102160000E7
:0102170000E6
:0102180000E5
:0102190000E4
:01021A0000E3
:01021B0000E2
:01021C0000E1
:01021D0000E0
:01021E0000DF
:01021F0000DE
:0102200000DD
:0102210000DC
:0102220000DB
:0102230000DA
:0102240000D9
:0102250000D8
:0102260000D7
:0102270000D6
:0102280000D5
:0102290000D4
:01022A0000D3
:01022B0000D2
:01022C0000D1
:01022D0000D0
:01022E0000CF
:01022F0000CE
:0102300000CD
:0102310000CC
:0102320000CB
:0102330000CA
:0102340000C9
:0102350000C8
:0102360000C7
:0102370000C6
:0102380000C5
:0102390000C4
:01023A0000C3
:01023B0000C2
:01023C0000C1
:01023D0000C0
:01023E0000BF
:01023F0000BE
:0102400000BD
:0102410000BC
:0102420000BB
:0102430000BA
:0102440000B9
:0102450000B8
:0102460000B7
:0102470000B6
:0102480000B5
:0102490000B4
:01024A0000B3
:01024B0000B2
:01024C0000B1
:01024D0000B0
:01024E0000AF
:01024F0000AE
:0102500000AD
:0102510000AC
:0102520000AB
:0102530000AA
:0102540000A9
:0102550000A8
:0102560000A7
:0102570000A6
:0102580000A5
:0102590000A4
:01025A0000A3
:01025B0000A2
:01025C0000A1
:01025D0000A0
:01025E00009F
:01025F00009E
:01026000009D
:01026100009C
:01026200009B
:01026300009A
:010264000099
:010265000098
:010266000097
:010267000096
:010268000095
:010269000094
:01026A000093
:01026B000092
:01026C000091
:01026D000090
:01026E00008F
:01026F00008E
:01027000008D
:01027100008C
:01027200008B
:01027300008A
:010274000089
:010275000088
:010276000087
:010277000086
:010278000085
:010279000480
:01027A00047F
:01027B00047E
:01027C00047D
:01027D00047C
:01027E00047B
:01027F00047A
:010280000479
:010281000478
:010282000477
:010283000476
:010284000475
:010285000474
:010286000473
:010287000472
:010288000471
:010289000470
:01028A00046F
:01028B00046E
:01028C00046D
:01028D00046C
:01028E00046B
:01028F00046A
:010290000469
:010291000468
:010292000467
:010293000466
:010294000465
:010295000464
:010296000463
:010297000462
:010298000461
:010299000460
:01029A00045F
:01029B00045E
:01029C000061
:01029D000060
:01029E00005F
:01029F00005E
:0102A000005D
:0102A100005C
:0102A200005B
:0102A300005A
:0102A4000059
:0102A5000058
:0102A6000057
:0102A7000056
:0102A8000055
:0102A9000054
:0102AA000053
:0102AB000052
:0102AC000051
:0102AD000050
:0102AE00004F
:0102AF00004E
:0102B000004D
:0102B100004C
:0102B200004B
:0102B300004A
:0102B4000049
:0102B5000048
:0102B6000047
:0102B7000046
:0102B8000045
:0102B9000044
:0102BA000043
:0102BB000042
:0102BC000041
:0102BD000040
:0102BE00003F
:0102BF00003E
:0102C000003D
:0102C100003C
:0102C200003B
:0102C300003A
:0102C4000039
:0102C5000038
:0102C6000037
:0102C7000036
:0102C8000035
:0102C9000034
:0102CA000033
:0102CB000032
:0102CC000031
:0102CD000030
:0102CE00002F
:0102CF00002E
:0102D000002D
:0102D100002C
:0102D200002B
:0102D300002A
:0102D4000029
:0102D5000028
:0102D6000027
:0102D7000026
:0102D8000025
:0102D9000024
:0102DA000023
:0102DB000022
:0102DC000021
:0102DD000020
:0102DE00001F
:0102DF00001E
:0102E000001D
:0102E100001C
:0102E200001B
:0102E300001A
:0102E4000019
:0102E5000018
:0102E6000017
:0102E7000016
:0102E8000015
:0102E9000014
:0102EA000013
:0102EB000012
:0102EC000011
:0102ED000010
:0102EE00000F
:0102EF00000E
:0102F000000D
:0102F100000C
:0102F200000B
:0102F300000A
:0102F4000009
:0102F5000008
:0102F6000007
:0102F7000006
:0102F8000005
:0102F90006FE
:0102FA0007FC
:0102FB0007FB
:0102FC0007FA
:0102FD0007F9
:0102FE0007F8
:0102FF0007F7
:0103000007F5
:0103010007F4
:0103020007F3
:0103030007F2
:0103040007F1
:0103050007F0
:0103060007EF
:0103070007EE
:0103080007ED
:0103090007EC
:01030A0007EB
:01030B0007EA
:01030C0007E9
:01030D0007E8
:01030E0007E7
:01030F0007E6
:0103100007E5
:0103110007E4
:0103120007E3
:0103130007E2
:0103140007E1
:0103150007E0
:0103160007DF
:0103170007DE
:0103180007DD
:0103190007DC
:01031A0007DB
:01031B0007DA
:01031C0007D9
:01031D0007D8
:01031E0007D7
:01031F0007D6
:0103200007D5
:0103210007D4
:0103220007D3
:0103230007D2
:0103240007D1
:0103250007D0
:0103260007CF
:0103270007CE
:0103280007CD
:0103290007CC
:01032A0007CB
:01032B0007CA
:01032C0007C9
:01032D0007C8
:01032E0007C7
:01032F0007C6
:0103300007C5
:0103310007C4
:0103320007C3
:0103330007C2
:0103340007C1
:0103350007C0
:0103360007BF
:0103370007BE
:0103380007BD
:0103390007BC
:01033A0007BB
:01033B0007BA
:01033C0007B9
:01033D0007B8
:01033E0007B7
:01033F0007B6
:0103400007B5
:0103410007B4
:0103420007B3
:0103430007B2
:0103440007B1
:0103450007B0
:0103460007AF
:0103470007AE
:0103480007AD
:0103490007AC
:01034A0007AB
:01034B0007AA
:01034C0007A9
:01034D0007A8
:01034E0007A7
:01034F0007A6
:0103500007A5
:0103510007A4
:0103520007A3
:0103530007A2
:0103540007A1
:0103550007A0
:01035600079F
:01035700079E
:01035800079D
:01035900079C
:01035A00079B
:01035B00079A
:01035C000799
:01035D000798
:01035E000797
:01035F000796
:010360000795
:010361000794
:010362000793
:010363000792
:010364000791
:010365000790
:01036600078F
:01036700078E
:01036800078D
:01036900078C
:01036A00078B
:01036B00078A
:01036C000789
:01036D000788
:01036E000787
:01036F000786
:010370000785
:010371000784
:010372000783
:010373000782
:010374000781
:010375000780
:01037600077F
:01037700077E
:01037800077D
:01037900077C
:01037A00077B
:01037B00077A
:01037C000779
:01037D000778
:01037E000777
:01037F000776
:010380000775
:010381000774
:010382000773
:010383000772
:010384000771
:010385000770
:01038600076F
:01038700076E
:01038800076D
:01038900076C
:01038A00076B
:01038B00076A
:01038C000769
:01038D000768
:01038E000767
:01038F000766
:010390000765
:010391000764
:010392000763
:010393000762
:010394000761
:010395000760
:01039600075F
:01039700075E
:01039800075D
:01039900075C
:01039A00075B
:01039B00075A
:01039C000759
:01039D000758
:01039E000757
:01039F000756
:0103A0000755
:0103A1000754
:0103A2000753
:0103A3000752
:0103A4000751
:0103A5000750
:0103A600074F
:0103A700074E
:0103A800074D
:0103A900074C
:0103AA00074B
:0103AB00074A
:0103AC000749
:0103AD000748
:0103AE000747
:0103AF000746
:0103B0000745
:0103B1000744
:0103B2000743
:0103B3000742
:0103B4000741
:0103B5000740
:0103B600073F
:0103B700073E
:0103B800073D
:0103B900073C
:0103BA00073B
:0103BB00073A
:0103BC000739
:0103BD000738
:0103BE000737
:0103BF000736
:0103C0000735
:0103C1000734
:0103C2000733
:0103C3000732
:0103C4000731
:0103C5000730
:0103C600072F
:0103C700072E
:0103C800072D
:0103C900072C
:0103CA00072B
:0103CB00072A
:0103CC000729
:0103CD000728
:0103CE000727
:0103CF000726
:0103D0000725
:0103D1000724
:0103D2000723
:0103D3000722
:0103D4000721
:0103D5000720
:0103D600071F
:0103D700071E
:0103D800071D
:0103D900071C
:0103DA00071B
:0103DB00071A
:0103DC000719
:0103DD000718
:0103DE000717
:0103DF000716
:0103E0000715
:0103E1000714
:0103E2000713
:0103E3000712
:0103E4000711
:0103E5000710
:0103E600070F
:0103E700070E
:0103E800070D
:0103E900070C
:0103EA00070B
:0103EB00070A
:0103EC000709
:0103ED000708
:0103EE000707
:0103EF000706
:0103F0000705
:0103F1000704
:0103F2000703
:0103F3000702
:0103F4000701
:0103F5000700
:0103F60007FF
:0103F70007FE
:0103F80007FD
:0103F90007FC
:0103FA0007FB
:0103FB0007FA
:0103FC0007F9
:0103FD0007F8
:0103FE0007F7
:0103FF0007F6
:0104000007F4
:0104010007F3
:0104020007F2
:0104030007F1
:0104040007F0
:0104050007EF
:0104060007EE
:0104070007ED
:0104080007EC
:0104090007EB
:01040A0007EA
:01040B0007E9
:01040C0007E8
:01040D0007E7
:01040E0007E6
:01040F0007E5
:0104100007E4
:0104110007E3
:0104120007E2
:0104130007E1
:0104140007E0
:0104150007DF
:0104160007DE
:0104170007DD
:0104180007DC
:0104190007DB
:01041A0007DA
:01041B0007D9
:01041C0007D8
:01041D0007D7
:01041E0007D6
:01041F0007D5
:0104200007D4
:0104210007D3
:0104220007D2
:0104230007D1
:0104240007D0
:0104250007CF
:0104260007CE
:0104270007CD
:0104280007CC
:0104290007CB
:01042A0007CA
:01042B0007C9
:01042C0007C8
:01042D0005C9
:01042E0004C9
:01042F0000CC
:0104300000CB
:0104310000CA
:0104320000C9
:0104330000C8
:0104340000C7
:0104350000C6
:0104360000C5
:0104370000C4
:0104380000C3
:0104390000C2
:01043A0000C1
:01043B0000C0
:01043C0000BF
:01043D0000BE
:01043E0000BD
:01043F0000BC
:0104400000BB
:0104410000BA
:0104420000B9
:0104430000B8
:0104440000B7
:0104450000B6
:0104460000B5
:0104470000B4
:0104480000B3
:0104490000B2
:01044A0000B1
:01044B0000B0
:01044C0000AF
:01044D0000AE
:01044E0000AD
:01044F0000AC
:0104500000AB
:0104510000AA
:0104520000A9
:0104530000A8
:0104540000A7
:0104550000A6
:0104560000A5
:0104570000A4
:0104580000A3
:0104590000A2
:01045A0000A1
:01045B0000A0
:01045C00009F
:01045D00009E
:01045E00009D
:01045F00009C
:01046000009B
:01046100009A
:010462000099
:010463000098
:010464000097
:010465000096
:010466000095
:010467000094
:010468000093
:010469000092
:01046A000091
:01046B000090
:01046C00008F
:01046D00008E
:01046E00008D
:01046F00008C
:01047000008B
:01047100008A
:010472000089
:010473000088
:010474000087
:010475000086
:010476000085
:010477000084
:010478000083
:010479000082
:01047A000081
:01047B000080
:01047C00007F
:01047D00007E
:01047E00007D
:01047F00007C
:01048000007B
:01048100007A
:010482000079
:010483000078
:010484000077
:010485000076
:010486000075
:010487000074
:010488000073
:010489000072
:01048A000071
:01048B000070
:01048C00006F
:01048D00006E
:01048E00006D
:01048F00006C
:01049000006B
:01049100006A
:010492000069
:010493000068
:010494000067
:010495000066
:010496000065
:010497000064
:010498000063
:010499000062
:01049A000061
:01049B000060
:01049C00005F
:01049D00005E
:01049E00005D
:01049F00005C
:0104A000005B
:0104A100005A
:0104A2000059
:0104A3000058
:0104A4000057
:0104A5000056
:0104A6000055
:0104A7000054
:0104A8000053
:0104A9000052
:0104AA000051
:0104AB000050
:0104AC00004F
:0104AD00004E
:0104AE00004D
:0104AF00004C
:0104B000004B
:0104B100004A
:0104B2000049
:0104B3000048
:0104B4000047
:0104B5000046
:0104B6000045
:0104B7000044
:0104B8000043
:0104B9000042
:0104BA000041
:0104BB000040
:0104BC00003F
:0104BD00003E
:0104BE00003D
:0104BF00003C
:0104C000003B
:0104C100003A
:0104C2000039
:0104C3000038
:0104C4000037
:0104C5000036
:0104C6000035
:0104C7000034
:0104C8000033
:0104C9000032
:0104CA000031
:0104CB000030
:0104CC00002F
:0104CD00002E
:0104CE00002D
:0104CF00002C
:0104D000002B
:0104D100002A
:0104D2000029
:0104D3000028
:0104D4000027
:0104D5000026
:0104D6000025
:0104D7000024
:0104D8000023
:0104D9000022
:0104DA000021
:0104DB000020
:0104DC00001F
:0104DD00001E
:0104DE00001D
:0104DF00001C
:0104E000001B
:0104E100001A
:0104E2000019
:0104E3000018
:0104E4000017
:0104E5000016
:0104E6000015
:0104E7000014
:0104E8000013
:0104E9000012
:0104EA000011
:0104EB000010
:0104EC00000F
:0104ED00000E
:0104EE00000D
:0104EF00000C
:0104F000000B
:0104F100000A
:0104F2000009
:0104F3000008
:0104F4000007
:0104F5000006
:0104F6000005
:0104F7000400
:0104F80004FF
:0104F90004FE
:0104FA0004FD
:0104FB0004FC
:0104FC0004FB
:0104FD0004FA
:0104FE0004F9
:0104FF0004F8
:0105000004F6
:0105010004F5
:0105020004F4
:0105030004F3
:0105040004F2
:0105050004F1
:0105060004F0
:0105070004EF
:0105080004EE
:0105090004ED
:01050A0004EC
:01050B0004EB
:01050C0004EA
:01050D0004E9
:01050E0004E8
:01050F0004E7
:0105100004E6
:0105110004E5
:0105120004E4
:0105130004E3
:0105140004E2
:0105150004E1
:0105160004E0
:0105170004DF
:0105180004DE
:0105190004DD
:01051A0004DC
:01051B0004DB
:01051C0000DE
:01051D0000DD
:01051E0000DC
:01051F0000DB
:0105200000DA
:0105210000D9
:0105220000D8
:0105230000D7
:0105240000D6
:0105250000D5
:0105260000D4
:0105270000D3
:0105280000D2
:0105290000D1
:01052A0000D0
:01052B0000CF
:01052C0000CE
:01052D0000CD
:01052E0000CC
:01052F0000CB
:0105300000CA
:0105310000C9
:0105320000C8
:0105330000C7
:0105340000C6
:0105350000C5
:0105360000C4
:0105370000C3
:0105380000C2
:0105390000C1
:01053A0000C0
:01053B0000BF
:01053C0000BE
:01053D0000BD
:01053E0000BC
:01053F0000BB
:0105400000BA
:0105410000B9
:0105420000B8
:0105430000B7
:0105440000B6
:0105450000B5
:0105460000B4
:0105470000B3
:0105480000B2
:0105490000B1
:01054A0000B0
:01054B0000AF
:01054C0000AE
:01054D0000AD
:01054E0000AC
:01054F0000AB
:0105500000AA
:0105510000A9
:0105520000A8
:0105530000A7
:0105540000A6
:0105550000A5
:0105560000A4
:0105570000A3
:0105580000A2
:0105590000A1
:01055A0000A0
:01055B00009F
:01055C00009E
:01055D00009D
:01055E00009C
:01055F00009B
:01056000009A
:010561000099
:010562000098
:010563000097
:010564000096
:010565000095
:010566000094
:010567000093
:010568000092
:010569000091
:01056A000090
:01056B00008F
:01056C00008E
:01056D00008D
:01056E00008C
:01056F00008B
:01057000008A
:010571000089
:010572000088
:010573000087
:010574000086
:010575000085
:010576000084
:010577000083
:010578000082
:01057900047D
:01057A000779
:01057B000778
:01057C000777
:01057D000776
:01057E000775
:01057F000774
:010580000773
:010581000772
:010582000771
:010583000770
:01058400076F
:01058500076E
:01058600076D
:01058700076C
:01058800076B
:01058900076A
:01058A000769
:01058B000768
:01058C000767
:01058D000766
:01058E000765
:01058F000764
:010590000763
:010591000762
:010592000761
:010593000760
:01059400075F
:01059500075E
:01059600075D
:01059700075C
:01059800075B
:01059900075A
:01059A000759
:01059B000758
:01059C000757
:01059D000756
:01059E000755
:01059F000754
:0105A0000753
:0105A1000752
:0105A2000751
:0105A3000750
:0105A400074F
:0105A500074E
:0105A600074D
:0105A700074C
:0105A800074B
:0105A900074A
:0105AA000749
:0105AB000748
:0105AC000747
:0105AD000746
:0105AE000745
:0105AF000744
:0105B0000743
:0105B1000742
:0105B2000741
:0105B3000740
:0105B400073F
:0105B500073E
:0105B600073D
:0105B700073C
:0105B800073B
:0105B900073A
:0105BA000739
:0105BB000738
:0105BC000737
:0105BD000736
:0105BE000735
:0105BF000734
:0105C0000733
:0105C1000732
:0105C2000731
:0105C3000730
:0105C400072F
:0105C500072E
:0105C600072D
:0105C700072C
:0105C800072B
:0105C900072A
:0105CA000729
:0105CB000728
:0105CC000727
:0105CD000726
:0105CE000725
:0105CF000724
:0105D0000723
:0105D1000722
:0105D2000721
:0105D3000720
:0105D400071F
:0105D500071E
:0105D600071D
:0105D700071C
:0105D800071B
:0105D900071A
:0105DA000719
:0105DB000718
:0105DC000717
:0105DD000716
:0105DE000715
:0105DF000714
:0105E0000713
:0105E1000712
:0105E2000711
:0105E3000710
:0105E400070F
:0105E500070E
:0105E600070D
:0105E700070C
:0105E800070B
:0105E900070A
:0105EA000709
:0105EB000708
:0105EC000707
:0105ED000706
:0105EE000705
:0105EF000704
:0105F0000703
:0105F1000702
:0105F2000701
:0105F3000700
:0105F40007FF
:0105F50007FE
:0105F60007FD
:0105F70007FC
:0105F80007FB
:0105F90007FA
:0105FA0007F9
:0105FB0007F8
:0105FC0007F7
:0105FD0007F6
:0105FE0007F5
:0105FF0007F4
:0106000007F2
:0106010007F1
:0106020007F0
:0106030007EF
:0106040007EE
:0106050007ED
:0106060007EC
:0106070007EB
:0106080007EA
:0106090007E9
:01060A0007E8
:01060B0007E7
:01060C0007E6
:01060D0007E5
:01060E0007E4
:01060F0007E3
:0106100007E2
:0106110007E1
:0106120007E0
:0106130007DF
:0106140007DE
:0106150007DD
:0106160007DC
:0106170007DB
:0106180007DA
:0106190007D9
:01061A0007D8
:01061B0007D7
:01061C0007D6
:01061D0007D5
:01061E0007D4
:01061F0007D3
:0106200007D2
:0106210007D1
:0106220007D0
:0106230007CF
:0106240007CE
:0106250007CD
:0106260007CC
:0106270007CB
:0106280007CA
:0106290007C9
:01062A0007C8
:01062B0007C7
:01062C0007C6
:01062D0007C5
:01062E0007C4
:01062F0007C3
:0106300007C2
:0106310007C1
:0106320007C0
:0106330007BF
:0106340007BE
:0106350007BD
:0106360007BC
:0106370007BB
:0106380007BA
:0106390007B9
:01063A0007B8
:01063B0007B7
:01063C0007B6
:01063D0007B5
:01063E0007B4
:01063F0007B3
:0106400007B2
:0106410007B1
:0106420007B0
:0106430007AF
:0106440007AE
:0106450007AD
:0106460007AC
:0106470007AB
:0106480007AA
:0106490007A9
:01064A0007A8
:01064B0007A7
:01064C0007A6
:01064D0007A5
:01064E0007A4
:01064F0007A3
:0106500007A2
:0106510007A1
:0106520007A0
:01065300079F
:01065400079E
:01065500079D
:01065600079C
:01065700079B
:01065800079A
:010659000799
:01065A000798
:01065B000797
:01065C000796
:01065D000795
:01065E000794
:01065F000793
:010660000792
:010661000791
:010662000790
:01066300078F
:01066400078E
:01066500078D
:01066600078C
:01066700078B
:01066800078A
:010669000789
:01066A000788
:01066B000787
:01066C000786
:01066D000785
:01066E000784
:01066F000783
:010670000782
:010671000781
:010672000780
:01067300077F
:01067400077E
:01067500077D
:01067600077C
:01067700077B
:01067800077A
:010679000779
:01067A000778
:01067B000777
:01067C000776
:01067D000775
:01067E000774
:01067F000773
:010680000772
:010681000771
:010682000770
:01068300076F
:01068400076E
:01068500076D
:01068600076C
:01068700076B
:01068800076A
:010689000769
:01068A000768
:01068B000767
:01068C000766
:01068D000765
:01068E000764
:01068F000763
:010690000762
:010691000761
:010692000760
:01069300075F
:01069400075E
:01069500075D
:01069600075C
:01069700075B
:01069800075A
:010699000759
:01069A000758
:01069B000757
:01069C000756
:01069D000755
:01069E000754
:01069F000753
:0106A0000752
:0106A1000751
:0106A2000750
:0106A300074F
:0106A400074E
:0106A500074D
:0106A600074C
:0106A700074B
:0106A800074A
:0106A9000749
:0106AA000748
:0106AB000747
:0106AC000746
:0106AD000745
:0106AE000447
:0106AF00004A
:0106B0000049
:0106B1000048
:0106B2000047
:0106B3000046
:0106B4000045
:0106B5000044
:0106B6000043
:0106B7000042
:0106B8000041
:0106B9000040
:0106BA00003F
:0106BB00003E
:0106BC00003D
:0106BD00003C
:0106BE00003B
:0106BF00003A
:0106C0000039
:0106C1000038
:0106C2000037
:0106C3000036
:0106C4000035
:0106C5000034
:0106C6000033
:0106C7000032
:0106C8000031
:0106C9000030
:0106CA00002F
:0106CB00002E
:0106CC00002D
:0106CD00002C
:0106CE00002B
:0106CF00002A
:0106D0000029
:0106D1000028
:0106D2000027
:0106D3000026
:0106D4000025
:0106D5000024
:0106D6000023
:0106D7000022
:0106D8000021
:0106D9000020
:0106DA00001F
:0106DB00001E
:0106DC00001D
:0106DD00001C
:0106DE00001B
:0106DF00001A
:0106E0000019
:0106E1000018
:0106E2000017
:0106E3000016
:0106E4000015
:0106E5000014
:0106E6000013
:0106E7000012
:0106E8000011
:0106E9000010
:0106EA00000F
:0106EB00000E
:0106EC00000D
:0106ED00000C
:0106EE00000B
:0106EF00000A
:0106F0000009
:0106F1000008
:0106F2000007
:0106F3000006
:0106F4000005
:0106F5000004
:0106F6000003
:0106F7000002
:0106F8000001
:0106F9000000
:0106FA0000FF
:0106FB0000FE
:0106FC0000FD
:0106FD0000FC
:0106FE0000FB
:0106FF0000FA
:0107000000F8
:0107010000F7
:0107020000F6
:0107030000F5
:0107040000F4
:0107050000F3
:0107060000F2
:0107070000F1
:0107080000F0
:0107090000EF
:01070A0000EE
:01070B0000ED
:01070C0000EC
:01070D0000EB
:01070E0000EA
:01070F0000E9
:0107100000E8
:0107110000E7
:0107120000E6
:0107130000E5
:0107140000E4
:0107150000E3
:0107160000E2
:0107170000E1
:0107180000E0
:0107190000DF
:01071A0000DE
:01071B0000DD
:01071C0000DC
:01071D0000DB
:01071E0000DA
:01071F0000D9
:0107200000D8
:0107210000D7
:0107220000D6
:0107230000D5
:0107240000D4
:0107250000D3
:0107260000D2
:0107270000D1
:0107280000D0
:0107290000CF
:01072A0000CE
:01072B0000CD
:01072C0000CC
:01072D0000CB
:01072E0000CA
:01072F0000C9
:0107300000C8
:0107310000C7
:0107320000C6
:0107330000C5
:0107340000C4
:0107350000C3
:0107360000C2
:0107370000C1
:0107380000C0
:0107390000BF
:01073A0000BE
:01073B0000BD
:01073C0000BC
:01073D0000BB
:01073E0000BA
:01073F0000B9
:0107400000B8
:0107410000B7
:0107420000B6
:0107430000B5
:0107440000B4
:0107450000B3
:0107460000B2
:0107470000B1
:0107480000B0
:0107490000AF
:01074A0000AE
:01074B0000AD
:01074C0000AC
:01074D0000AB
:01074E0000AA
:01074F0000A9
:0107500000A8
:0107510000A7
:0107520000A6
:0107530000A5
:0107540000A4
:0107550000A3
:0107560000A2
:0107570000A1
:0107580000A0
:01075900009F
:01075A00009E
:01075B00009D
:01075C00009C
:01075D00009B
:01075E00009A
:01075F000099
:010760000098
:010761000097
:010762000096
:010763000095
:010764000094
:010765000093
:010766000092
:010767000091
:010768000090
:01076900008F
:01076A00008E
:01076B00008D
:01076C00008C
:01076D00008B
:01076E00008A
:01076F000089
:010770000088
:010771000087
:010772000086
:010773000085
:010774000084
:01077500047F
:01077600047E
:01077700047D
:01077800047C
:01077900047B
:01077A00047A
:01077B000479
:01077C000478
:01077D000477
:01077E000476
:01077F000475
:010780000474
:010781000473
:010782000472
:010783000471
:010784000470
:01078500046F
:01078600046E
:01078700046D
:01078800046C
:01078900046B
:01078A00046A
:01078B000469
:01078C000468
:01078D000467
:01078E000466
:01078F000465
:010790000464
:010791000463
:010792000462
:010793000461
:010794000460
:01079500045F
:01079600045E
:01079700045D
:01079800045C
:01079900045B
:01079A00045A
:01079B000459
:01079C00005C
:01079D00005B
:01079E00005A
:01079F000059
:0107A0000058
:0107A1000057
:0107A2000056
:0107A3000055
:0107A4000054
:0107A5000053
:0107A6000052
:0107A7000051
:0107A8000050
:0107A900004F
:0107AA00004E
:0107AB00004D
:0107AC00004C
:0107AD00004B
:0107AE00004A
:0107AF000049
:0107B0000048
:0107B1000047
:0107B2000046
:0107B3000045
:0107B4000044
:0107B5000043
:0107B6000042
:0107B7000041
:0107B8000040
:0107B900003F
:0107BA00003E
:0107BB00003D
:0107BC00003C
:0107BD00003B
:0107BE00003A
:0107BF000039
:0107C0000038
:0107C1000037
:0107C2000036
:0107C3000035
:0107C4000034
:0107C5000033
:0107C6000032
:0107C7000031
:0107C8000030
:0107C900002F
:0107CA00002E
:0107CB00002D
:0107CC00002C
:0107CD00002B
:0107CE00002A
:0107CF000029
:0107D0000028
:0107D1000027
:0107D2000026
:0107D3000025
:0107D4000024
:0107D5000023
:0107D6000022
:0107D7000021
:0107D8000020
:0107D900001F
:0107DA00001E
:0107DB00001D
:0107DC00001C
:0107DD00001B
:0107DE00001A
:0107DF000019
:0107E0000018
:0107E1000017
:0107E2000016
:0107E3000015
:0107E4000014
:0107E5000013
:0107E6000012
:0107E7000011
:0107E8000010
:0107E900000F
:0107EA00000E
:0107EB00000D
:0107EC00000C
:0107ED00000B
:0107EE00000A
:0107EF000009
:0107F0000008
:0107F1000007
:0107F2000006
:0107F3000005
:0107F4000004
:0107F5000003
:0107F6000002
:0107F7000001
:0107F8000000
:0107F90004FB
:0107FA0007F7
:0107FB0007F6
:0107FC0007F5
:0107FD0007F4
:0107FE0007F3
:0107FF0007F2
:0108000007F0
:0108010007EF
:0108020007EE
:0108030007ED
:0108040007EC
:0108050007EB
:0108060007EA
:0108070007E9
:0108080007E8
:0108090007E7
:01080A0007E6
:01080B0007E5
:01080C0007E4
:01080D0007E3
:01080E0007E2
:01080F0007E1
:0108100007E0
:0108110007DF
:0108120007DE
:0108130007DD
:0108140007DC
:0108150007DB
:0108160007DA
:0108170007D9
:0108180007D8
:0108190007D7
:01081A0007D6
:01081B0007D5
:01081C0007D4
:01081D0007D3
:01081E0007D2
:01081F0007D1
:0108200007D0
:0108210007CF
:0108220007CE
:0108230007CD
:0108240007CC
:0108250007CB
:0108260007CA
:0108270007C9
:0108280007C8
:0108290007C7
:01082A0007C6
:01082B0007C5
:01082C0007C4
:01082D0007C3
:01082E0007C2
:01082F0007C1
:0108300007C0
:0108310007BF
:0108320007BE
:0108330007BD
:0108340007BC
:0108350007BB
:0108360007BA
:0108370007B9
:0108380007B8
:0108390007B7
:01083A0007B6
:01083B0007B5
:01083C0007B4
:01083D0007B3
:01083E0007B2
:01083F0007B1
:0108400007B0
:0108410007AF
:0108420007AE
:0108430007AD
:0108440007AC
:0108450007AB
:0108460007AA
:0108470007A9
:0108480007A8
:0108490007A7
:01084A0007A6
:01084B0007A5
:01084C0007A4
:01084D0007A3
:01084E0007A2
:01084F0007A1
:0108500007A0
:01085100079F
:01085200079E
:01085300079D
:01085400079C
:01085500079B
:01085600079A
:010857000799
:010858000798
:010859000797
:01085A000796
:01085B000795
:01085C000794
:01085D000793
:01085E000792
:01085F000791
:010860000790
:01086100078F
:01086200078E
:01086300078D
:01086400078C
:01086500078B
:01086600078A
:010867000789
:010868000788
:010869000787
:01086A000786
:01086B000785
:01086C000784
:01086D000783
:01086E000782
:01086F000781
:010870000780
:01087100077F
:01087200077E
:01087300077D
:01087400077C
:01087500077B
:01087600077A
:010877000779
:010878000778
:010879000777
:01087A000776
:01087B000775
:01087C000774
:01087D000773
:01087E000772
:01087F000771
:010880000770
:01088100076F
:01088200076E
:01088300076D
:01088400076C
:01088500076B
:01088600076A
:010887000769
:010888000768
:010889000767
:01088A000766
:01088B000765
:01088C000764
:01088D000763
:01088E000762
:01088F000761
:010890000760
:01089100075F
:01089200075E
:01089300075D
:01089400075C
:01089500075B
:01089600075A
:010897000759
:010898000758
:010899000757
:01089A000756
:01089B000755
:01089C000754
:01089D000753
:01089E000752
:01089F000751
:0108A0000750
:0108A100074F
:0108A200074E
:0108A300074D
:0108A400074C
:0108A500074B
:0108A600074A
:0108A7000749
:0108A8000748
:0108A9000747
:0108AA000746
:0108AB000745
:0108AC000744
:0108AD000743
:0108AE000742
:0108AF000741
:0108B0000740
:0108B100073F
:0108B200073E
:0108B300073D
:0108B400073C
:0108B500073B
:0108B600073A
:0108B7000739
:0108B8000738
:0108B9000737
:0108BA000736
:0108BB000735
:0108BC000734
:0108BD000733
:0108BE000732
:0108BF000731
:0108C0000730
:0108C100072F
:0108C200072E
:0108C300072D
:0108C400072C
:0108C500072B
:0108C600072A
:0108C7000729
:0108C8000728
:0108C9000727
:0108CA000726
:0108CB000725
:0108CC000724
:0108CD000723
:0108CE000722
:0108CF000721
:0108D0000720
:0108D100071F
:0108D200071E
:0108D300071D
:0108D400071C
:0108D500071B
:0108D600071A
:0108D7000719
:0108D8000718
:0108D9000717
:0108DA000716
:0108DB000715
:0108DC000714
:0108DD000713
:0108DE000712
:0108DF000711
:0108E0000710
:0108E100070F
:0108E200070E
:0108E300070D
:0108E400070C
:0108E500070B
:0108E600070A
:0108E7000709
:0108E8000708
:0108E9000707
:0108EA000706
:0108EB000705
:0108EC000704
:0108ED000703
:0108EE000702
:0108EF000701
:0108F0000700
:0108F10007FF
:0108F20007FE
:0108F30007FD
:0108F40007FC
:0108F50007FB
:0108F60007FA
:0108F70007F9
:0108F80007F8
:0108F90007F7
:0108FA0007F6
:0108FB0007F5
:0108FC0007F4
:0108FD0007F3
:0108FE0007F2
:0108FF0007F1
:0109000007EF
:0109010007EE
:0109020007ED
:0109030007EC
:0109040007EB
:0109050007EA
:0109060007E9
:0109070007E8
:0109080007E7
:0109090007E6
:01090A0007E5
:01090B0007E4
:01090C0007E3
:01090D0007E2
:01090E0007E1
:01090F0007E0
:0109100007DF
:0109110007DE
:0109120007DD
:0109130007DC
:0109140007DB
:0109150007DA
:0109160007D9
:0109170007D8
:0109180007D7
:0109190007D6
:01091A0007D5
:01091B0007D4
:01091C0007D3
:01091D0007D2
:01091E0007D1
:01091F0007D0
:0109200007CF
:0109210007CE
:0109220007CD
:0109230007CC
:0109240007CB
:0109250007CA
:0109260007C9
:0109270007C8
:0109280007C7
:0109290007C6
:01092A0007C5
:01092B0007C4
:01092C0007C3
:01092D0007C2
:01092E0004C4
:01092F0000C7
:0109300000C6
:0109310000C5
:0109320000C4
:0109330000C3
:0109340000C2
:0109350000C1
:0109360000C0
:0109370000BF
:0109380000BE
:0109390000BD
:01093A0000BC
:01093B0000BB
:01093C0000BA
:01093D0000B9
:01093E0000B8
:01093F0000B7
:0109400000B6
:0109410000B5
:0109420000B4
:0109430000B3
:0109440000B2
:0109450000B1
:0109460000B0
:0109470000AF
:0109480000AE
:0109490000AD
:01094A0000AC
:01094B0000AB
:01094C0000AA
:01094D0000A9
:01094E0000A8
:01094F0000A7
:0109500000A6
:0109510000A5
:0109520000A4
:0109530000A3
:0109540000A2
:0109550000A1
:0109560000A0
:01095700009F
:01095800009E
:01095900009D
:01095A00009C
:01095B00009B
:01095C00009A
:01095D000099
:01095E000098
:01095F000097
:010960000096
:010961000095
:010962000094
:010963000093
:010964000092
:010965000091
:010966000090
:01096700008F
:01096800008E
:01096900008D
:01096A00008C
:01096B00008B
:01096C00008A
:01096D000089
:01096E000088
:01096F000087
:010970000086
:010971000085
:010972000084
:010973000083
:010974000082
:010975000081
:010976000080
:01097700007F
:01097800007E
:01097900007D
:01097A00007C
:01097B00007B
:01097C00007A
:01097D000079
:01097E000078
:01097F000077
:010980000076
:010981000075
:010982000074
:010983000073
:010984000072
:010985000071
:010986000070
:01098700006F
:01098800006E
:01098900006D
:01098A00006C
:01098B00006B
:01098C00006A
:01098D000069
:01098E000068
:01098F000067
:010990000066
:010991000065
:010992000064
:010993000063
:010994000062
:010995000061
:010996000060
:01099700005F
:01099800005E
:01099900005D
:01099A00005C
:01099B00005B
:01099C00005A
:01099D000059
:01099E000058
:01099F000057
:0109A0000056
:0109A1000055
:0109A2000054
:0109A3000053
:0109A4000052
:0109A5000051
:0109A6000050
:0109A700004F
:0109A800004E
:0109A900004D
:0109AA00004C
:0109AB00004B
:0109AC00004A
:0109AD000049
:0109AE000048
:0109AF000047
:0109B0000046
:0109B1000045
:0109B2000044
:0109B3000043
:0109B4000042
:0109B5000041
:0109B6000040
:0109B700003F
:0109B800003E
:0109B900003D
:0109BA00003C
:0109BB00003B
:0109BC00003A
:0109BD000039
:0109BE000038
:0109BF000037
:0109C0000036
:0109C1000035
:0109C2000034
:0109C3000033
:0109C4000032
:0109C5000031
:0109C6000030
:0109C700002F
:0109C800002E
:0109C900002D
:0109CA00002C
:0109CB00002B
:0109CC00002A
:0109CD000029
:0109CE000028
:0109CF000027
:0109D0000026
:0109D1000025
:0109D2000024
:0109D3000023
:0109D4000022
:0109D5000021
:0109D6000020
:0109D700001F
:0109D800001E
:0109D900001D
:0109DA00001C
:0109DB00001B
:0109DC00001A
:0109DD000019
:0109DE000018
:0109DF000017
:0109E0000016
:0109E1000015
:0109E2000014
:0109E3000013
:0109E4000012
:0109E5000011
:0109E6000010
:0109E700000F
:0109E800000E
:0109E900000D
:0109EA00000C
:0109EB00000B
:0109EC00000A
:0109ED000009
:0109EE000008
:0109EF000007
:0109F0000006
:0109F1000005
:0109F2000400
:0109F30004FF
:0109F4000002
:0109F5000001
:0109F60004FC
:0109F70004FB
:0109F80004FA
:0109F90004F9
:0109FA0004F8
:0109FB0004F7
:0109FC0004F6
:0109FD0004F5
:0109FE0004F4
:0109FF0004F3
:010A000004F1
:010A010004F0
:010A020004EF
:010A030004EE
:010A040004ED
:010A050004EC
:010A060004EB
:010A070004EA
:010A080004E9
:010A090004E8
:010A0A0004E7
:010A0B0004E6
:010A0C0004E5
:010A0D0004E4
:010A0E0004E3
:010A0F0004E2
:010A100004E1
:010A110004E0
:010A120004DF
:010A130004DE
:010A140004DD
:010A150004DC
:010A160004DB
:010A170004DA
:010A180004D9
:010A190004D8
:010A1A0004D7
:010A1B0004D6
:010A1C0004D5
:010A1D0000D8
:010A1E0000D7
:010A1F0000D6
:010A200000D5
:010A210000D4
:010A220000D3
:010A230000D2
:010A240000D1
:010A250000D0
:010A260000CF
:010A270000CE
:010A280000CD
:010A290000CC
:010A2A0000CB
:010A2B0000CA
:010A2C0000C9
:010A2D0000C8
:010A2E0000C7
:010A2F0000C6
:010A300000C5
:010A310000C4
:010A320000C3
:010A330000C2
:010A340000C1
:010A350000C0
:010A360000BF
:010A370000BE
:010A380000BD
:010A390000BC
:010A3A0000BB
:010A3B0000BA
:010A3C0000B9
:010A3D0000B8
:010A3E0000B7
:010A3F0000B6
:010A400000B5
:010A410000B4
:010A420000B3
:010A430000B2
:010A440000B1
:010A450000B0
:010A460000AF
:010A470000AE
:010A480000AD
:010A490000AC
:010A4A0000AB
:010A4B0000AA
:010A4C0000A9
:010A4D0000A8
:010A4E0000A7
:010A4F0000A6
:010A500000A5
:010A510000A4
:010A520000A3
:010A530000A2
:010A540000A1
:010A550000A0
:010A5600009F
:010A5700009E
:010A5800009D
:010A5900009C
:010A5A00009B
:010A5B00009A
:010A5C000099
:010A5D000098
:010A5E000097
:010A5F000096
:010A60000095
:010A61000094
:010A62000093
:010A63000092
:010A64000091
:010A65000090
:010A6600008F
:010A6700008E
:010A6800008D
:010A6900008C
:010A6A00008B
:010A6B00008A
:010A6C000089
:010A6D000088
:010A6E000087
:010A6F000086
:010A70000085
:010A71000084
:010A72000083
:010A73000082
:010A74000081
:010A75000080
:010A7600007F
:010A7700007E
:010A7800007D
:010A79000478
:010A7A000774
:010A7B000773
:010A7C000772
:010A7D000771
:010A7E000770
:010A7F00076F
:010A8000076E
:010A8100076D
:010A8200076C
:010A8300076B
:010A8400076A
:010A85000769
:010A86000768
:010A87000767
:010A88000766
:010A89000765
:010A8A000764
:010A8B000763
:010A8C000762
:010A8D000761
:010A8E000760
:010A8F00075F
:010A9000075E
:010A9100075D
:010A9200075C
:010A9300075B
:010A9400075A
:010A95000759
:010A96000758
:010A97000757
:010A98000756
:010A99000755
:010A9A000754
:010A9B000753
:010A9C000752
:010A9D000751
:010A9E000750
:010A9F00074F
:010AA000074E
:010AA100074D
:010AA200074C
:010AA300074B
:010AA400074A
:010AA5000749
:010AA6000748
:010AA7000747
:010AA8000746
:010AA9000745
:010AAA000744
:010AAB000743
:010AAC000742
:010AAD000741
:010AAE000740
:010AAF00073F
:010AB000073E
:010AB100073D
:010AB200073C
:010AB300073B
:010AB400073A
:010AB5000739
:010AB6000738
:010AB7000737
:010AB8000736
:010AB9000735
:010ABA000734
:010ABB000733
:010ABC000732
:010ABD000731
:010ABE000730
:010ABF00072F
:010AC000072E
:010AC100072D
:010AC200072C
:010AC300072B
:010AC400072A
:010AC5000729
:010AC6000728
:010AC7000727
:010AC8000726
:010AC9000725
:010ACA000724
:010ACB000723
:010ACC000722
:010ACD000721
:010ACE000720
:010ACF00071F
:010AD000071E
:010AD100071D
:010AD200071C
:010AD300071B
:010AD400071A
:010AD5000719
:010AD6000718
:010AD7000717
:010AD8000716
:010AD9000715
:010ADA000714
:010ADB000713
:010ADC000712
:010ADD000711
:010ADE000710
:010ADF00070F
:010AE000070E
:010AE100070D
:010AE200070C
:010AE300070B
:010AE400070A
:010AE5000709
:010AE6000708
:010AE7000707
:010AE8000706
:010AE9000705
:010AEA000704
:010AEB000703
:010AEC000702
:010AED000701
:010AEE000700
:010AEF0007FF
:010AF00007FE
:010AF10007FD
:010AF20007FC
:010AF30007FB
:010AF40007FA
:010AF50007F9
:010AF60007F8
:010AF70007F7
:010AF80007F6
:010AF90007F5
:010AFA0007F4
:010AFB0007F3
:010AFC0007F2
:010AFD0007F1
:010AFE0007F0
:010AFF0007EF
:010B000007ED
:010B010007EC
:010B020007EB
:010B030007EA
:010B040007E9
:010B050007E8
:010B060007E7
:010B070007E6
:010B080007E5
:010B090007E4
:010B0A0007E3
:010B0B0007E2
:010B0C0007E1
:010B0D0007E0
:010B0E0007DF
:010B0F0007DE
:010B100007DD
:010B110007DC
:010B120007DB
:010B130007DA
:010B140007D9
:010B150007D8
:010B160007D7
:010B170007D6
:010B180007D5
:010B190007D4
:010B1A0007D3
:010B1B0007D2
:010B1C0007D1
:010B1D0007D0
:010B1E0007CF
:010B1F0007CE
:010B200007CD
:010B210007CC
:010B220007CB
:010B230007CA
:010B240007C9
:010B250007C8
:010B260007C7
:010B270007C6
:010B280007C5
:010B290007C4
:010B2A0007C3
:010B2B0007C2
:010B2C0007C1
:010B2D0007C0
:010B2E0007BF
:010B2F0007BE
:010B300007BD
:010B310007BC
:010B320007BB
:010B330007BA
:010B340007B9
:010B350007B8
:010B360007B7
:010B370007B6
:010B380007B5
:010B390007B4
:010B3A0007B3
:010B3B0007B2
:010B3C0007B1
:010B3D0007B0
:010B3E0007AF
:010B3F0007AE
:010B400007AD
:010B410007AC
:010B420007AB
:010B430007AA
:010B440007A9
:010B450007A8
:010B460007A7
:010B470007A6
:010B480007A5
:010B490007A4
:010B4A0007A3
:010B4B0007A2
:010B4C0007A1
:010B4D0007A0
:010B4E00079F
:010B4F00079E
:010B5000079D
:010B5100079C
:010B5200079B
:010B5300079A
:010B54000799
:010B55000798
:010B56000797
:010B57000796
:010B58000795
:010B59000794
:010B5A000793
:010B5B000792
:010B5C000791
:010B5D000790
:010B5E00078F
:010B5F00078E
:010B6000078D
:010B6100078C
:010B6200078B
:010B6300078A
:010B64000789
:010B65000788
:010B66000787
:010B67000786
:010B68000785
:010B69000784
:010B6A000783
:010B6B000782
:010B6C000781
:010B6D000780
:010B6E00077F
:010B6F00077E
:010B7000077D
:010B7100077C
:010B7200077B
:010B7300077A
:010B74000779
:010B75000778
:010B76000777
:010B77000776
:010B78000775
:010B79000774
:010B7A000773
:010B7B000772
:010B7C000771
:010B7D000770
:010B7E00076F
:010B7F00076E
:010B8000076D
:010B8100076C
:010B8200076B
:010B8300076A
:010B84000769
:010B85000768
:010B86000767
:010B87000766
:010B88000765
:010B89000764
:010B8A000763
:010B8B000762
:010B8C000761
:010B8D000760
:010B8E00075F
:010B8F00075E
:010B9000075D
:010B9100075C
:010B9200075B
:010B9300075A
:010B94000759
:010B95000758
:010B96000757
:010B97000756
:010B98000755
:010B99000754
:010B9A000753
:010B9B000752
:010B9C000751
:010B9D000750
:010B9E00074F
:010B9F00074E
:010BA000074D
:010BA100074C
:010BA200074B
:010BA300074A
:010BA4000749
:010BA5000748
:010BA6000747
:010BA7000746
:010BA8000745
:010BA9000744
:010BAA000743
:010BAB000742
:010BAC000741
:010BAD000740
:010BAE000442
:010BAF000045
:010BB0000044
:010BB1000043
:010BB2000042
:010BB3000041
:010BB4000040
:010BB500003F
:010BB600003E
:010BB700003D
:010BB800003C
:010BB900003B
:010BBA00003A
:010BBB000039
:010BBC000038
:010BBD000037
:010BBE000036
:010BBF000035
:010BC0000034
:010BC1000033
:010BC2000032
:010BC3000031
:010BC4000030
:010BC500002F
:010BC600002E
:010BC700002D
:010BC800002C
:010BC900002B
:010BCA00002A
:010BCB000029
:010BCC000028
:010BCD000027
:010BCE000026
:010BCF000025
:010BD0000024
:010BD1000023
:010BD2000022
:010BD3000021
:010BD4000020
:010BD500001F
:010BD600001E
:010BD700001D
:010BD800001C
:010BD900001B
:010BDA00001A
:010BDB000019
:010BDC000018
:010BDD000017
:010BDE000016
:010BDF000015
:010BE0000014
:010BE1000013
:010BE2000012
:010BE3000011
:010BE4000010
:010BE500000F
:010BE600000E
:010BE700000D
:010BE800000C
:010BE900000B
:010BEA00000A
:010BEB000009
:010BEC000008
:010BED000007
:010BEE000006
:010BEF000005
:010BF0000004
:010BF1000003
:010BF2000002
:010BF3000001
:010BF4000000
:010BF50000FF
:010BF60000FE
:010BF70000FD
:010BF80000FC
:010BF90000FB
:010BFA0000FA
:010BFB0000F9
:010BFC0000F8
:010BFD0000F7
:010BFE0000F6
:010BFF0000F5
:010C000000F3
:010C010000F2
:010C020000F1
:010C030000F0
:010C040000EF
:010C050000EE
:010C060000ED
:010C070000EC
:010C080000EB
:010C090000EA
:010C0A0000E9
:010C0B0000E8
:010C0C0000E7
:010C0D0000E6
:010C0E0000E5
:010C0F0000E4
:010C100000E3
:010C110000E2
:010C120000E1
:010C130000E0
:010C140000DF
:010C150000DE
:010C160000DD
:010C170000DC
:010C180000DB
:010C190000DA
:010C1A0000D9
:010C1B0000D8
:010C1C0000D7
:010C1D0000D6
:010C1E0000D5
:010C1F0000D4
:010C200000D3
:010C210000D2
:010C220000D1
:010C230000D0
:010C240000CF
:010C250000CE
:010C260000CD
:010C270000CC
:010C280000CB
:010C290000CA
:010C2A0000C9
:010C2B0000C8
:010C2C0000C7
:010C2D0000C6
:010C2E0000C5
:010C2F0000C4
:010C300000C3
:010C310000C2
:010C320000C1
:010C330000C0
:010C340000BF
:010C350000BE
:010C360000BD
:010C370000BC
:010C380000BB
:010C390000BA
:010C3A0000B9
:010C3B0000B8
:010C3C0000B7
:010C3D0000B6
:010C3E0000B5
:010C3F0000B4
:010C400000B3
:010C410000B2
:010C420000B1
:010C430000B0
:010C440000AF
:010C450000AE
:010C460000AD
:010C470000AC
:010C480000AB
:010C490000AA
:010C4A0000A9
:010C4B0000A8
:010C4C0000A7
:010C4D0000A6
:010C4E0000A5
:010C4F0000A4
:010C500000A3
:010C510000A2
:010C520000A1
:010C530000A0
:010C5400009F
:010C5500009E
:010C5600009D
:010C5700009C
:010C5800009B
:010C5900009A
:010C5A000099
:010C5B000098
:010C5C000097
:010C5D000096
:010C5E000095
:010C5F000094
:010C60000093
:010C61000092
:010C62000091
:010C63000090
:010C6400008F
:010C6500008E
:010C6600008D
:010C6700008C
:010C6800008B
:010C6900008A
:010C6A000089
:010C6B000088
:010C6C000087
:010C6D000086
:010C6E000085
:010C6F000084
:010C70000083
:010C71000082
:010C7200047D
:010C7300047C
:010C7400047B
:010C7500047A
:010C76000479
:010C77000478
:010C78000477
:010C79000476
:010C7A000475
:010C7B000474
:010C7C000473
:010C7D000472
:010C7E000471
:010C7F000470
:010C8000046F
:010C8100046E
:010C8200046D
:010C8300046C
:010C8400046B
:010C8500046A
:010C86000469
:010C87000468
:010C88000467
:010C89000466
:010C8A000465
:010C8B000464
:010C8C000463
:010C8D000462
:010C8E000461
:010C8F000460
:010C9000045F
:010C9100045E
:010C9200045D
:010C9300045C
:010C9400045B
:010C9500045A
:010C96000459
:010C97000458
:010C98000457
:010C99000456
:010C9A000455
:010C9B000454
:010C9C000453
:010C9D000056
:010C9E000055
:010C9F000054
:010CA0000053
:010CA1000052
:010CA2000051
:010CA3000050
:010CA400004F
:010CA500004E
:010CA600004D
:010CA700004C
:010CA800004B
:010CA900004A
:010CAA000049
:010CAB000048
:010CAC000047
:010CAD000046
:010CAE000045
:010CAF000044
:010CB0000043
:010CB1000042
:010CB2000041
:010CB3000040
:010CB400003F
:010CB500003E
:010CB600003D
:010CB700003C
:010CB800003B
:010CB900003A
:010CBA000039
:010CBB000038
:010CBC000037
:010CBD000036
:010CBE000035
:010CBF000034
:010CC0000033
:010CC1000032
:010CC2000031
:010CC3000030
:010CC400002F
:010CC500002E
:010CC600002D
:010CC700002C
:010CC800002B
:010CC900002A
:010CCA000029
:010CCB000028
:010CCC000027
:010CCD000026
:010CCE000025
:010CCF000024
:010CD0000023
:010CD1000022
:010CD2000021
:010CD3000020
:010CD400001F
:010CD500001E
:010CD600001D
:010CD700001C
:010CD800001B
:010CD900001A
:010CDA000019
:010CDB000018
:010CDC000017
:010CDD000016
:010CDE000015
:010CDF000014
:010CE0000013
:010CE1000012
:010CE2000011
:010CE3000010
:010CE400000F
:010CE500000E
:010CE600000D
:010CE700000C
:010CE800000B
:010CE900000A
:010CEA000009
:010CEB000008
:010CEC000007
:010CED000006
:010CEE000005
:010CEF000004
:010CF0000003
:010CF1000002
:010CF2000001
:010CF3000000
:010CF40000FF
:010CF50000FE
:010CF60000FD
:010CF70000FC
:010CF80000FB
:010CF90007F3
:010CFA0007F2
:010CFB0007F1
:010CFC0007F0
:010CFD0007EF
:010CFE0007EE
:010CFF0007ED
:010D000007EB
:010D010007EA
:010D020007E9
:010D030007E8
:010D040007E7
:010D050007E6
:010D060007E5
:010D070007E4
:010D080007E3
:010D090007E2
:010D0A0007E1
:010D0B0007E0
:010D0C0007DF
:010D0D0007DE
:010D0E0007DD
:010D0F0007DC
:010D100007DB
:010D110007DA
:010D120007D9
:010D130007D8
:010D140007D7
:010D150007D6
:010D160007D5
:010D170007D4
:010D180007D3
:010D190007D2
:010D1A0007D1
:010D1B0007D0
:010D1C0007CF
:010D1D0007CE
:010D1E0007CD
:010D1F0007CC
:010D200007CB
:010D210007CA
:010D220007C9
:010D230007C8
:010D240007C7
:010D250007C6
:010D260007C5
:010D270007C4
:010D280007C3
:010D290007C2
:010D2A0007C1
:010D2B0007C0
:010D2C0007BF
:010D2D0007BE
:010D2E0007BD
:010D2F0007BC
:010D300007BB
:010D310007BA
:010D320007B9
:010D330007B8
:010D340007B7
:010D350007B6
:010D360007B5
:010D370007B4
:010D380007B3
:010D390007B2
:010D3A0007B1
:010D3B0007B0
:010D3C0007AF
:010D3D0007AE
:010D3E0007AD
:010D3F0007AC
:010D400007AB
:010D410007AA
:010D420007A9
:010D430007A8
:010D440007A7
:010D450007A6
:010D460007A5
:010D470007A4
:010D480007A3
:010D490007A2
:010D4A0007A1
:010D4B0007A0
:010D4C00079F
:010D4D00079E
:010D4E00079D
:010D4F00079C
:010D5000079B
:010D5100079A
:010D52000799
:010D53000798
:010D54000797
:010D55000796
:010D56000795
:010D57000794
:010D58000793
:010D59000792
:010D5A000791
:010D5B000790
:010D5C00078F
:010D5D00078E
:010D5E00078D
:010D5F00078C
:010D6000078B
:010D6100078A
:010D62000789
:010D63000788
:010D64000787
:010D65000786
:010D66000785
:010D67000784
:010D68000783
:010D69000782
:010D6A000781
:010D6B000780
:010D6C00077F
:010D6D00077E
:010D6E00077D
:010D6F00077C
:010D7000077B
:010D7100077A
:010D72000779
:010D73000778
:010D74000777
:010D75000776
:010D76000775
:010D77000774
:010D78000773
:010D79000772
:010D7A000771
:010D7B000770
:010D7C00076F
:010D7D00076E
:010D7E00076D
:010D7F00076C
:010D8000076B
:010D8100076A
:010D82000769
:010D83000768
:010D84000767
:010D85000766
:010D86000765
:010D87000764
:010D88000763
:010D89000762
:010D8A000761
:010D8B000760
:010D8C00075F
:010D8D00075E
:010D8E00075D
:010D8F00075C
:010D9000075B
:010D9100075A
:010D92000759
:010D93000758
:010D94000757
:010D95000756
:010D96000755
:010D97000754
:010D98000753
:010D99000752
:010D9A000751
:010D9B000750
:010D9C00074F
:010D9D00074E
:010D9E00074D
:010D9F00074C
:010DA000074B
:010DA100074A
:010DA2000749
:010DA3000748
:010DA4000747
:010DA5000746
:010DA6000745
:010DA7000744
:010DA8000743
:010DA9000742
:010DAA000741
:010DAB000740
:010DAC00073F
:010DAD00073E
:010DAE00073D
:010DAF00073C
:010DB000073B
:010DB100073A
:010DB2000739
:010DB3000738
:010DB4000737
:010DB5000736
:010DB6000735
:010DB7000734
:010DB8000733
:010DB9000732
:010DBA000731
:010DBB000730
:010DBC00072F
:010DBD00072E
:010DBE00072D
:010DBF00072C
:010DC000072B
:010DC100072A
:010DC2000729
:010DC3000728
:010DC4000727
:010DC5000726
:010DC6000725
:010DC7000724
:010DC8000723
:010DC9000722
:010DCA000721
:010DCB000720
:010DCC00071F
:010DCD00071E
:010DCE00071D
:010DCF00071C
:010DD000071B
:010DD100071A
:010DD2000719
:010DD3000718
:010DD4000717
:010DD5000716
:010DD6000715
:010DD7000714
:010DD8000713
:010DD9000712
:010DDA000711
:010DDB000710
:010DDC00070F
:010DDD00070E
:010DDE00070D
:010DDF00070C
:010DE000070B
:010DE100070A
:010DE2000709
:010DE3000708
:010DE4000707
:010DE5000706
:010DE6000705
:010DE7000704
:010DE8000703
:010DE9000702
:010DEA000701
:010DEB000700
:010DEC0007FF
:010DED0007FE
:010DEE0007FD
:010DEF0007FC
:010DF00007FB
:010DF10007FA
:010DF20007F9
:010DF30007F8
:010DF40007F7
:010DF50007F6
:010DF60007F5
:010DF70007F4
:010DF80007F3
:010DF90007F2
:010DFA0007F1
:010DFB0007F0
:010DFC0007EF
:010DFD0007EE
:010DFE0007ED
:010DFF0007EC
:010E000007EA
:010E010007E9
:010E020007E8
:010E030007E7
:010E040007E6
:010E050007E5
:010E060007E4
:010E070007E3
:010E080007E2
:010E090007E1
:010E0A0007E0
:010E0B0007DF
:010E0C0007DE
:010E0D0007DD
:010E0E0007DC
:010E0F0007DB
:010E100007DA
:010E110007D9
:010E120007D8
:010E130007D7
:010E140007D6
:010E150007D5
:010E160007D4
:010E170007D3
:010E180007D2
:010E190007D1
:010E1A0007D0
:010E1B0007CF
:010E1C0007CE
:010E1D0007CD
:010E1E0007CC
:010E1F0007CB
:010E200007CA
:010E210007C9
:010E220007C8
:010E230007C7
:010E240007C6
:010E250007C5
:010E260007C4
:010E270007C3
:010E280007C2
:010E290007C1
:010E2A0007C0
:010E2B0007BF
:010E2C0007BE
:010E2D0007BD
:010E2E0004BF
:010E2F0000C2
:010E300000C1
:010E310000C0
:010E320000BF
:010E330000BE
:010E340000BD
:010E350000BC
:010E360000BB
:010E370000BA
:010E380000B9
:010E390000B8
:010E3A0000B7
:010E3B0000B6
:010E3C0000B5
:010E3D0000B4
:010E3E0000B3
:010E3F0000B2
:010E400000B1
:010E410000B0
:010E420000AF
:010E430000AE
:010E440000AD
:010E450000AC
:010E460000AB
:010E470000AA
:010E480000A9
:010E490000A8
:010E4A0000A7
:010E4B0000A6
:010E4C0000A5
:010E4D0000A4
:010E4E0000A3
:010E4F0000A2
:010E500000A1
:010E510000A0
:010E5200009F
:010E5300009E
:010E5400009D
:010E5500009C
:010E5600009B
:010E5700009A
:010E58000099
:010E59000098
:010E5A000097
:010E5B000096
:010E5C000095
:010E5D000094
:010E5E000093
:010E5F000092
:010E60000091
:010E61000090
:010E6200008F
:010E6300008E
:010E6400008D
:010E6500008C
:010E6600008B
:010E6700008A
:010E68000089
:010E69000088
:010E6A000087
:010E6B000086
:010E6C000085
:010E6D000084
:010E6E000083
:010E6F000082
:010E70000081
:010E71000080
:010E7200007F
:010E7300007E
:010E7400007D
:010E7500007C
:010E7600007B
:010E7700007A
:010E78000079
:010E79000078
:010E7A000077
:010E7B000076
:010E7C000075
:010E7D000074
:010E7E000073
:010E7F000072
:010E80000071
:010E81000070
:010E8200006F
:010E8300006E
:010E8400006D
:010E8500006C
:010E8600006B
:010E8700006A
:010E88000069
:010E89000068
:010E8A000067
:010E8B000066
:010E8C000065
:010E8D000064
:010E8E000063
:010E8F000062
:010E90000061
:010E91000060
:010E9200005F
:010E9300005E
:010E9400005D
:010E9500005C
:010E9600005B
:010E9700005A
:010E98000059
:010E99000058
:010E9A000057
:010E9B000056
:010E9C000055
:010E9D000054
:010E9E000053
:010E9F000052
:010EA0000051
:010EA1000050
:010EA200004F
:010EA300004E
:010EA400004D
:010EA500004C
:010EA600004B
:010EA700004A
:010EA8000049
:010EA9000048
:010EAA000047
:010EAB000046
:010EAC000045
:010EAD000044
:010EAE000043
:010EAF000042
:010EB0000041
:010EB1000040
:010EB200003F
:010EB300003E
:010EB400003D
:010EB500003C
:010EB600003B
:010EB700003A
:010EB8000039
:010EB9000038
:010EBA000037
:010EBB000036
:010EBC000035
:010EBD000034
:010EBE000033
:010EBF000032
:010EC0000031
:010EC1000030
:010EC200002F
:010EC300002E
:010EC400002D
:010EC500002C
:010EC600002B
:010EC700002A
:010EC8000029
:010EC9000028
:010ECA000027
:010ECB000026
:010ECC000025
:010ECD000024
:010ECE000023
:010ECF000022
:010ED0000021
:010ED1000020
:010ED200001F
:010ED300001E
:010ED400001D
:010ED500001C
:010ED600001B
:010ED700001A
:010ED8000019
:010ED9000018
:010EDA000017
:010EDB000016
:010EDC000015
:010EDD000014
:010EDE000013
:010EDF000012
:010EE0000011
:010EE1000010
:010EE200000F
:010EE300000E
:010EE400000D
:010EE500000C
:010EE600000B
:010EE700000A
:010EE8000009
:010EE9000008
:010EEA000007
:010EEB000006
:010EEC000005
:010EED000004
:010EEE000003
:010EEF000002
:010EF0000001
:010EF10004FC
:010EF20004FB
:010EF30004FA
:010EF40004F9
:010EF50004F8
:010EF60004F7
:010EF70004F6
:010EF80004F5
:010EF90004F4
:010EFA0004F3
:010EFB0004F2
:010EFC0004F1
:010EFD0004F0
:010EFE0004EF
:010EFF0004EE
:010F000004EC
:010F010004EB
:010F020004EA
:010F030004E9
:010F040004E8
:010F050004E7
:010F060004E6
:010F070004E5
:010F080004E4
:010F090004E3
:010F0A0004E2
:010F0B0004E1
:010F0C0004E0
:010F0D0004DF
:010F0E0004DE
:010F0F0004DD
:010F100004DC
:010F110004DB
:010F120004DA
:010F130004D9
:010F140004D8
:010F150004D7
:010F160004D6
:010F170004D5
:010F180004D4
:010F190004D3
:010F1A0004D2
:010F1B0004D1
:010F1C0004D0
:010F1D0000D3
:010F1E0000D2
:010F1F0000D1
:010F200000D0
:010F210000CF
:010F220000CE
:010F230000CD
:010F240000CC
:010F250000CB
:010F260000CA
:010F270000C9
:010F280000C8
:010F290000C7
:010F2A0000C6
:010F2B0000C5
:010F2C0000C4
:010F2D0000C3
:010F2E0000C2
:010F2F0000C1
:010F300000C0
:010F310000BF
:010F320000BE
:010F330000BD
:010F340000BC
:010F350000BB
:010F360000BA
:010F370000B9
:010F380000B8
:010F390000B7
:010F3A0000B6
:010F3B0000B5
:010F3C0000B4
:010F3D0000B3
:010F3E0000B2
:010F3F0000B1
:010F400000B0
:010F410000AF
:010F420000AE
:010F430000AD
:010F440000AC
:010F450000AB
:010F460000AA
:010F470000A9
:010F480000A8
:010F490000A7
:010F4A0000A6
:010F4B0000A5
:010F4C0000A4
:010F4D0000A3
:010F4E0000A2
:010F4F0000A1
:010F500000A0
:010F5100009F
:010F5200009E
:010F5300009D
:010F5400009C
:010F5500009B
:010F5600009A
:010F57000099
:010F58000098
:010F59000097
:010F5A000096
:010F5B000095
:010F5C000094
:010F5D000093
:010F5E000092
:010F5F000091
:010F60000090
:010F6100008F
:010F6200008E
:010F6300008D
:010F6400008C
:010F6500008B
:010F6600008A
:010F67000089
:010F68000088
:010F69000087
:010F6A000086
:010F6B000085
:010F6C000084
:010F6D000083
:010F6E000082
:010F6F000081
:010F70000080
:010F7100007F
:010F7200007E
:010F7300007D
:010F7400007C
:010F7500007B
:010F7600007A
:010F77000079
:010F78000078
:010F79000770
:010F7A00076F
:010F7B00076E
:010F7C00076D
:010F7D00076C
:010F7E00076B
:010F7F00076A
:010F80000769
:010F81000768
:010F82000767
:010F83000766
:010F84000765
:010F85000764
:010F86000763
:010F87000762
:010F88000761
:010F89000760
:010F8A00075F
:010F8B00075E
:010F8C00075D
:010F8D00075C
:010F8E00075B
:010F8F00075A
:010F90000759
:010F91000758
:010F92000757
:010F93000756
:010F94000755
:010F95000754
:010F96000753
:010F97000752
:010F98000751
:010F99000750
:010F9A00074F
:010F9B00074E
:010F9C00074D
:010F9D00074C
:010F9E00074B
:010F9F00074A
:010FA0000749
:010FA1000748
:010FA2000747
:010FA3000746
:010FA4000745
:010FA5000744
:010FA6000743
:010FA7000742
:010FA8000741
:010FA9000740
:010FAA00073F
:010FAB00073E
:010FAC00073D
:010FAD00073C
:010FAE00073B
:010FAF00073A
:010FB0000739
:010FB1000738
:010FB2000737
:010FB3000736
:010FB4000735
:010FB5000734
:010FB6000733
:010FB7000732
:010FB8000731
:010FB9000730
:010FBA00072F
:010FBB00072E
:010FBC00072D
:010FBD00072C
:010FBE00072B
:010FBF00072A
:010FC0000729
:010FC1000728
:010FC2000727
:010FC3000726
:010FC4000725
:010FC5000724
:010FC6000723
:010FC7000722
:010FC8000721
:010FC9000720
:010FCA00071F
:010FCB00071E
:010FCC00071D
:010FCD00071C
:010FCE00071B
:010FCF00071A
:010FD0000719
:010FD1000718
:010FD2000717
:010FD3000716
:010FD4000715
:010FD5000714
:010FD6000713
:010FD7000712
:010FD8000711
:010FD9000710
:010FDA00070F
:010FDB00070E
:010FDC00070D
:010FDD00070C
:010FDE00070B
:010FDF00070A
:010FE0000709
:010FE1000708
:010FE2000707
:010FE3000706
:010FE4000705
:010FE5000704
:010FE6000703
:010FE7000702
:010FE8000701
:010FE9000700
:010FEA0007FF
:010FEB0007FE
:010FEC0007FD
:010FED0007FC
:010FEE0007FB
:010FEF0007FA
:010FF00007F9
:010FF10007F8
:010FF20007F7
:010FF30007F6
:010FF40007F5
:010FF50007F4
:010FF60007F3
:010FF70007F2
:010FF80007F1
:010FF90007F0
:010FFA0007EF
:010FFB0007EE
:010FFC0007ED
:010FFD0007EC
:010FFE0007EB
:010FFF0007EA
:0110000007E8
:0110010007E7
:0110020007E6
:0110030007E5
:0110040007E4
:0110050007E3
:0110060007E2
:0110070007E1
:0110080007E0
:0110090007DF
:01100A0007DE
:01100B0007DD
:01100C0007DC
:01100D0007DB
:01100E0007DA
:01100F0007D9
:0110100007D8
:0110110007D7
:0110120007D6
:0110130007D5
:0110140007D4
:0110150007D3
:0110160007D2
:0110170007D1
:0110180007D0
:0110190007CF
:01101A0007CE
:01101B0007CD
:01101C0007CC
:01101D0007CB
:01101E0007CA
:01101F0007C9
:0110200007C8
:0110210007C7
:0110220007C6
:0110230007C5
:0110240007C4
:0110250007C3
:0110260007C2
:0110270007C1
:0110280007C0
:0110290007BF
:01102A0007BE
:01102B0007BD
:01102C0007BC
:01102D0007BB
:01102E0007BA
:01102F0007B9
:0110300007B8
:0110310007B7
:0110320007B6
:0110330007B5
:0110340007B4
:0110350007B3
:0110360007B2
:0110370007B1
:0110380007B0
:0110390007AF
:01103A0007AE
:01103B0007AD
:01103C0007AC
:01103D0007AB
:01103E0007AA
:01103F0007A9
:0110400007A8
:0110410007A7
:0110420007A6
:0110430007A5
:0110440007A4
:0110450007A3
:0110460007A2
:0110470007A1
:0110480007A0
:01104900079F
:01104A00079E
:01104B00079D
:01104C00079C
:01104D00079B
:01104E00079A
:01104F000799
:011050000798
:011051000797
:011052000796
:011053000795
:011054000794
:011055000793
:011056000792
:011057000791
:011058000790
:01105900078F
:01105A00078E
:01105B00078D
:01105C00078C
:01105D00078B
:01105E00078A
:01105F000789
:011060000788
:011061000787
:011062000786
:011063000785
:011064000784
:011065000783
:011066000782
:011067000781
:011068000780
:01106900077F
:01106A00077E
:01106B00077D
:01106C00077C
:01106D00077B
:01106E00077A
:01106F000779
:011070000778
:011071000777
:011072000776
:011073000775
:011074000774
:011075000773
:011076000772
:011077000771
:011078000770
:01107900076F
:01107A00076E
:01107B00076D
:01107C00076C
:01107D00076B
:01107E00076A
:01107F000769
:011080000768
:011081000767
:011082000766
:011083000765
:011084000764
:011085000763
:011086000762
:011087000761
:011088000760
:01108900075F
:01108A00075E
:01108B00075D
:01108C00075C
:01108D00075B
:01108E00075A
:01108F000759
:011090000758
:011091000757
:011092000756
:011093000755
:011094000754
:011095000753
:011096000752
:011097000751
:011098000750
:01109900074F
:01109A00074E
:01109B00074D
:01109C00074C
:01109D00074B
:01109E00074A
:01109F000749
:0110A0000748
:0110A1000747
:0110A2000746
:0110A3000745
:0110A4000744
:0110A5000743
:0110A6000742
:0110A7000741
:0110A8000740
:0110A900073F
:0110AA00073E
:0110AB00073D
:0110AC00073C
:0110AD00073B
:0110AE00043D
:0110AF000040
:0110B000003F
:0110B100003E
:0110B200003D
:0110B300003C
:0110B400003B
:0110B500003A
:0110B6000039
:0110B7000038
:0110B8000037
:0110B9000036
:0110BA000035
:0110BB000034
:0110BC000033
:0110BD000032
:0110BE000031
:0110BF000030
:0110C000002F
:0110C100002E
:0110C200002D
:0110C300002C
:0110C400002B
:0110C500002A
:0110C6000029
:0110C7000028
:0110C8000027
:0110C9000026
:0110CA000025
:0110CB000024
:0110CC000023
:0110CD000022
:0110CE000021
:0110CF000020
:0110D000001F
:0110D100001E
:0110D200001D
:0110D300001C
:0110D400001B
:0110D500001A
:0110D6000019
:0110D7000018
:0110D8000017
:0110D9000016
:0110DA000015
:0110DB000014
:0110DC000013
:0110DD000012
:0110DE000011
:0110DF000010
:0110E000000F
:0110E100000E
:0110E200000D
:0110E300000C
:0110E400000B
:0110E500000A
:0110E6000009
:0110E7000008
:0110E8000007
:0110E9000006
:0110EA000005
:0110EB000004
:0110EC000003
:0110ED000002
:0110EE000001
:0110EF000000
:0110F00000FF
:0110F10000FE
:0110F20000FD
:0110F30000FC
:0110F40000FB
:0110F50000FA
:0110F60000F9
:0110F70000F8
:0110F80000F7
:0110F90000F6
:0110FA0000F5
:0110FB0000F4
:0110FC0000F3
:0110FD0000F2
:0110FE0000F1
:0110FF0000F0
:0111000000EE
:0111010000ED
:0111020000EC
:0111030000EB
:0111040000EA
:0111050000E9
:0111060000E8
:0111070000E7
:0111080000E6
:0111090000E5
:01110A0000E4
:01110B0000E3
:01110C0000E2
:01110D0000E1
:01110E0000E0
:01110F0000DF
:0111100000DE
:0111110000DD
:0111120000DC
:0111130000DB
:0111140000DA
:0111150000D9
:0111160000D8
:0111170000D7
:0111180000D6
:0111190000D5
:01111A0000D4
:01111B0000D3
:01111C0000D2
:01111D0000D1
:01111E0000D0
:01111F0000CF
:0111200000CE
:0111210000CD
:0111220000CC
:0111230000CB
:0111240000CA
:0111250000C9
:0111260000C8
:0111270000C7
:0111280000C6
:0111290000C5
:01112A0000C4
:01112B0000C3
:01112C0000C2
:01112D0000C1
:01112E0000C0
:01112F0000BF
:0111300000BE
:0111310000BD
:0111320000BC
:0111330000BB
:0111340000BA
:0111350000B9
:0111360000B8
:0111370000B7
:0111380000B6
:0111390000B5
:01113A0000B4
:01113B0000B3
:01113C0000B2
:01113D0000B1
:01113E0000B0
:01113F0000AF
:0111400000AE
:0111410000AD
:0111420000AC
:0111430000AB
:0111440000AA
:0111450000A9
:0111460000A8
:0111470000A7
:0111480000A6
:0111490000A5
:01114A0000A4
:01114B0000A3
:01114C0000A2
:01114D0000A1
:01114E0000A0
:01114F00009F
:01115000009E
:01115100009D
:01115200009C
:01115300009B
:01115400009A
:011155000099
:011156000098
:011157000097
:011158000096
:011159000095
:01115A000094
:01115B000093
:01115C000092
:01115D000091
:01115E000090
:01115F00008F
:01116000008E
:01116100008D
:01116200008C
:01116300008B
:01116400008A
:011165000089
:011166000088
:011167000087
:011168000086
:011169000085
:01116A000084
:01116B000083
:01116C000082
:01116D000081
:01116E000080
:01116F00007F
:01117000007E
:011171000479
:011172000478
:011173000477
:011174000476
:011175000475
:011176000474
:011177000473
:011178000472
:011179000471
:01117A000470
:01117B00046F
:01117C00046E
:01117D00046D
:01117E00046C
:01117F00046B
:01118000046A
:011181000469
:011182000468
:011183000467
:011184000466
:011185000465
:011186000464
:011187000463
:011188000462
:011189000461
:01118A000460
:01118B00045F
:01118C00045E
:01118D00045D
:01118E00045C
:01118F00045B
:01119000045A
:011191000459
:011192000458
:011193000457
:011194000456
:011195000455
:011196000454
:011197000453
:011198000452
:011199000451
:01119A000450
:01119B00044F
:01119C00044E
:01119D000051
:01119E000050
:01119F00004F
:0111A000004E
:0111A100004D
:0111A200004C
:0111A300004B
:0111A400004A
:0111A5000049
:0111A6000048
:0111A7000047
:0111A8000046
:0111A9000045
:0111AA000044
:0111AB000043
:0111AC000042
:0111AD000041
:0111AE000040
:0111AF00003F
:0111B000003E
:0111B100003D
:0111B200003C
:0111B300003B
:0111B400003A
:0111B5000039
:0111B6000038
:0111B7000037
:0111B8000036
:0111B9000035
:0111BA000034
:0111BB000033
:0111BC000032
:0111BD000031
:0111BE000030
:0111BF00002F
:0111C000002E
:0111C100002D
:0111C200002C
:0111C300002B
:0111C400002A
:0111C5000029
:0111C6000028
:0111C7000027
:0111C8000026
:0111C9000025
:0111CA000024
:0111CB000023
:0111CC000022
:0111CD000021
:0111CE000020
:0111CF00001F
:0111D000001E
:0111D100001D
:0111D200001C
:0111D300001B
:0111D400001A
:0111D5000019
:0111D6000018
:0111D7000017
:0111D8000016
:0111D9000015
:0111DA000014
